{
  "contractName": "Monolith",
  "abi": [
    {
      "inputs": [],
      "stateMutability": "nonpayable",
      "type": "constructor"
    },
    {
      "inputs": [
        {
          "internalType": "uint256",
          "name": "",
          "type": "uint256"
        }
      ],
      "name": "catalog",
      "outputs": [
        {
          "internalType": "string",
          "name": "name",
          "type": "string"
        },
        {
          "internalType": "uint256",
          "name": "price",
          "type": "uint256"
        },
        {
          "internalType": "uint256",
          "name": "purchased",
          "type": "uint256"
        }
      ],
      "stateMutability": "view",
      "type": "function"
    },
    {
      "inputs": [
        {
          "internalType": "address",
          "name": "",
          "type": "address"
        },
        {
          "internalType": "uint256",
          "name": "",
          "type": "uint256"
        }
      ],
      "name": "collection",
      "outputs": [
        {
          "internalType": "uint256",
          "name": "",
          "type": "uint256"
        }
      ],
      "stateMutability": "view",
      "type": "function"
    },
    {
      "inputs": [],
      "name": "releases",
      "outputs": [
        {
          "internalType": "uint256",
          "name": "",
          "type": "uint256"
        }
      ],
      "stateMutability": "view",
      "type": "function"
    },
    {
      "inputs": [
        {
          "internalType": "string",
          "name": "name",
          "type": "string"
        },
        {
          "internalType": "uint256",
          "name": "price",
          "type": "uint256"
        }
      ],
      "name": "newRelease",
      "outputs": [],
      "stateMutability": "nonpayable",
      "type": "function"
    },
    {
      "inputs": [
        {
          "internalType": "uint256",
          "name": "catIndex",
          "type": "uint256"
        },
        {
          "internalType": "string",
          "name": "hash",
          "type": "string"
        }
      ],
      "name": "pushHash",
      "outputs": [],
      "stateMutability": "nonpayable",
      "type": "function"
    },
    {
      "inputs": [
        {
          "internalType": "uint256",
          "name": "index",
          "type": "uint256"
        },
        {
          "internalType": "uint256",
          "name": "price",
          "type": "uint256"
        }
      ],
      "name": "priceChange",
      "outputs": [],
      "stateMutability": "nonpayable",
      "type": "function"
    },
    {
      "inputs": [
        {
          "internalType": "uint256",
          "name": "catIndex",
          "type": "uint256"
        }
      ],
      "name": "getHashesLength",
      "outputs": [
        {
          "internalType": "uint256",
          "name": "",
          "type": "uint256"
        }
      ],
      "stateMutability": "view",
      "type": "function"
    },
    {
      "inputs": [
        {
          "internalType": "uint256",
          "name": "catIndex",
          "type": "uint256"
        },
        {
          "internalType": "uint256",
          "name": "value",
          "type": "uint256"
        }
      ],
      "name": "buyRelease",
      "outputs": [],
      "stateMutability": "payable",
      "type": "function"
    },
    {
      "inputs": [
        {
          "internalType": "uint256",
          "name": "colIndex",
          "type": "uint256"
        },
        {
          "internalType": "uint256",
          "name": "hashIndex",
          "type": "uint256"
        }
      ],
      "name": "getHash",
      "outputs": [
        {
          "internalType": "string",
          "name": "",
          "type": "string"
        }
      ],
      "stateMutability": "view",
      "type": "function"
    }
  ],
  "bytecode": "0x608060405234801561001057600080fd5b50336000806101000a81548173ffffffffffffffffffffffffffffffffffffffff021916908373ffffffffffffffffffffffffffffffffffffffff1602179055506000600281905550611228806100686000396000f3fe6080604052600436106100865760003560e01c8063913e10e911610059578063913e10e91461016b578063ea5de25b14610196578063ebd94434146101d5578063ef0c010d146101fe578063fe76be8c1461022757610086565b80630ae59f3b1461008b5780630d5cda70146100c85780631b855044146100f157806385a3ed711461012e575b600080fd5b34801561009757600080fd5b506100b260048036038101906100ad9190610ba7565b610243565b6040516100bf9190610ecd565b60405180910390f35b3480156100d457600080fd5b506100ef60048036038101906100ea9190610cd4565b610274565b005b3480156100fd57600080fd5b5061011860048036038101906101139190610cd4565b6102fa565b6040516101259190610e0d565b60405180910390f35b34801561013a57600080fd5b5061015560048036038101906101509190610c47565b610462565b6040516101629190610ecd565b60405180910390f35b34801561017757600080fd5b50610180610482565b60405161018d9190610ecd565b60405180910390f35b3480156101a257600080fd5b506101bd60048036038101906101b89190610c47565b610488565b6040516101cc93929190610e2f565b60405180910390f35b3480156101e157600080fd5b506101fc60048036038101906101f79190610be7565b61054a565b005b34801561020a57600080fd5b5061022560048036038101906102209190610c74565b6106f3565b005b610241600480360381019061023c9190610cd4565b61079f565b005b6004602052816000526040600020818154811061025f57600080fd5b90600052602060002001600091509150505481565b60008054906101000a900473ffffffffffffffffffffffffffffffffffffffff1673ffffffffffffffffffffffffffffffffffffffff163373ffffffffffffffffffffffffffffffffffffffff16146102cc57600080fd5b80600183815481106102e1576102e06110f0565b5b9060005260206000209060030201600101819055505050565b6060600060036000600460003373ffffffffffffffffffffffffffffffffffffffff1673ffffffffffffffffffffffffffffffffffffffff1681526020019081526020016000208681548110610353576103526110f0565b5b90600052602060002001548152602001908152602001600020805480602002602001604051908101604052809291908181526020016000905b828210156104385783829060005260206000200180546103ab90611017565b80601f01602080910402602001604051908101604052809291908181526020018280546103d790611017565b80156104245780601f106103f957610100808354040283529160200191610424565b820191906000526020600020905b81548152906001019060200180831161040757829003601f168201915b50505050508152602001906001019061038c565b505050509050808381518110610451576104506110f0565b5b602002602001015191505092915050565b600060036000838152602001908152602001600020805490509050919050565b60025481565b6001818154811061049857600080fd5b90600052602060002090600302016000915090508060000180546104bb90611017565b80601f01602080910402602001604051908101604052809291908181526020018280546104e790611017565b80156105345780601f1061050957610100808354040283529160200191610534565b820191906000526020600020905b81548152906001019060200180831161051757829003601f168201915b5050505050908060010154908060020154905083565b60008054906101000a900473ffffffffffffffffffffffffffffffffffffffff1673ffffffffffffffffffffffffffffffffffffffff163373ffffffffffffffffffffffffffffffffffffffff16146105a257600080fd5b6001604051806060016040528085858080601f016020809104026020016040519081016040528093929190818152602001838380828437600081840152601f19601f8201169050808301925050505050505081526020018381526020016000815250908060018154018082558091505060019003906000526020600020906003020160009091909190915060008201518160000190805190602001906106499291906109fe565b50602082015181600101556040820151816002015550506002600081548092919061067390611049565b9190505550600460003373ffffffffffffffffffffffffffffffffffffffff1673ffffffffffffffffffffffffffffffffffffffff168152602001908152602001600020600180805490506106c89190610f74565b9080600181540180825580915050600190039060005260206000200160009091909190915055505050565b60008054906101000a900473ffffffffffffffffffffffffffffffffffffffff1673ffffffffffffffffffffffffffffffffffffffff163373ffffffffffffffffffffffffffffffffffffffff161461074b57600080fd5b60036000848152602001908152602001600020828290918060018154018082558091505060019003906000526020600020016000909192909192909192909192509190610799929190610a84565b50505050565b6000600183815481106107b5576107b46110f0565b5b9060005260206000209060030201905064e8d4a5100081600101546107da9190610f1a565b82101561081c576040517f08c379a000000000000000000000000000000000000000000000000000000000815260040161081390610e6d565b60405180910390fd5b60008060008054906101000a900473ffffffffffffffffffffffffffffffffffffffff1673ffffffffffffffffffffffffffffffffffffffff163460405160240161086690610ead565b6040516020818303038152906040527ff2c298be000000000000000000000000000000000000000000000000000000007bffffffffffffffffffffffffffffffffffffffffffffffffffffffff19166020820180517bffffffffffffffffffffffffffffffffffffffffffffffffffffffff83818316178352505050506040516108f09190610df6565b60006040518083038185875af1925050503d806000811461092d576040519150601f19603f3d011682016040523d82523d6000602084013e610932565b606091505b509150915081610977576040517f08c379a000000000000000000000000000000000000000000000000000000000815260040161096e90610e8d565b60405180910390fd5b600460003373ffffffffffffffffffffffffffffffffffffffff1673ffffffffffffffffffffffffffffffffffffffff1681526020019081526020016000208590806001815401808255809150506001900390600052602060002001600090919091909150558260020160008154809291906109f290611049565b91905055505050505050565b828054610a0a90611017565b90600052602060002090601f016020900481019282610a2c5760008555610a73565b82601f10610a4557805160ff1916838001178555610a73565b82800160010185558215610a73579182015b82811115610a72578251825591602001919060010190610a57565b5b509050610a809190610b0a565b5090565b828054610a9090611017565b90600052602060002090601f016020900481019282610ab25760008555610af9565b82601f10610acb57803560ff1916838001178555610af9565b82800160010185558215610af9579182015b82811115610af8578235825591602001919060010190610add565b5b509050610b069190610b0a565b5090565b5b80821115610b23576000816000905550600101610b0b565b5090565b600081359050610b36816111c4565b92915050565b60008083601f840112610b5257610b51611124565b5b8235905067ffffffffffffffff811115610b6f57610b6e61111f565b5b602083019150836001820283011115610b8b57610b8a611129565b5b9250929050565b600081359050610ba1816111db565b92915050565b60008060408385031215610bbe57610bbd611133565b5b6000610bcc85828601610b27565b9250506020610bdd85828601610b92565b9150509250929050565b600080600060408486031215610c0057610bff611133565b5b600084013567ffffffffffffffff811115610c1e57610c1d61112e565b5b610c2a86828701610b3c565b93509350506020610c3d86828701610b92565b9150509250925092565b600060208284031215610c5d57610c5c611133565b5b6000610c6b84828501610b92565b91505092915050565b600080600060408486031215610c8d57610c8c611133565b5b6000610c9b86828701610b92565b935050602084013567ffffffffffffffff811115610cbc57610cbb61112e565b5b610cc886828701610b3c565b92509250509250925092565b60008060408385031215610ceb57610cea611133565b5b6000610cf985828601610b92565b9250506020610d0a85828601610b92565b9150509250929050565b6000610d1f82610ee8565b610d298185610efe565b9350610d39818560208601610fe4565b80840191505092915050565b6000610d5082610ef3565b610d5a8185610f09565b9350610d6a818560208601610fe4565b610d7381611138565b840191505092915050565b6000610d8b601d83610f09565b9150610d9682611149565b602082019050919050565b6000610dae601483610f09565b9150610db982611172565b602082019050919050565b6000610dd1600683610f09565b9150610ddc8261119b565b602082019050919050565b610df081610fda565b82525050565b6000610e028284610d14565b915081905092915050565b60006020820190508181036000830152610e278184610d45565b905092915050565b60006060820190508181036000830152610e498186610d45565b9050610e586020830185610de7565b610e656040830184610de7565b949350505050565b60006020820190508181036000830152610e8681610d7e565b9050919050565b60006020820190508181036000830152610ea681610da1565b9050919050565b60006020820190508181036000830152610ec681610dc4565b9050919050565b6000602082019050610ee26000830184610de7565b92915050565b600081519050919050565b600081519050919050565b600081905092915050565b600082825260208201905092915050565b6000610f2582610fda565b9150610f3083610fda565b9250817fffffffffffffffffffffffffffffffffffffffffffffffffffffffffffffffff0483118215151615610f6957610f68611092565b5b828202905092915050565b6000610f7f82610fda565b9150610f8a83610fda565b925082821015610f9d57610f9c611092565b5b828203905092915050565b6000610fb382610fba565b9050919050565b600073ffffffffffffffffffffffffffffffffffffffff82169050919050565b6000819050919050565b60005b83811015611002578082015181840152602081019050610fe7565b83811115611011576000848401525b50505050565b6000600282049050600182168061102f57607f821691505b60208210811415611043576110426110c1565b5b50919050565b600061105482610fda565b91507fffffffffffffffffffffffffffffffffffffffffffffffffffffffffffffffff82141561108757611086611092565b5b600182019050919050565b7f4e487b7100000000000000000000000000000000000000000000000000000000600052601160045260246000fd5b7f4e487b7100000000000000000000000000000000000000000000000000000000600052602260045260246000fd5b7f4e487b7100000000000000000000000000000000000000000000000000000000600052603260045260246000fd5b600080fd5b600080fd5b600080fd5b600080fd5b600080fd5b6000601f19601f8301169050919050565b7f63616e277420706179206c657373207468616e206d696e207072696365000000600082015250565b7f4661696c656420746f2073656e64204574686572000000000000000000000000600082015250565b7f4d794e616d650000000000000000000000000000000000000000000000000000600082015250565b6111cd81610fa8565b81146111d857600080fd5b50565b6111e481610fda565b81146111ef57600080fd5b5056fea26469706673582212200c1759bcad4866567a1ac95deeeca052619e61f4cd04c6ee1b5dba7633a43e0b64736f6c63430008070033",
  "immutableReferences": {},
  "source": "// SPDX-License-Identifier: GPL-3.0\r\npragma solidity >=0.7.0 <0.9.0;\r\n\r\ncontract Monolith {\r\n  address private dev;\r\n\r\n  constructor() {\r\n    dev = msg.sender;\r\n    releases = 0;\r\n  }\r\n\r\n  struct Release {\r\n    string name;\r\n    uint256 price;\r\n    uint256 purchased;\r\n  }\r\n  Release[] public catalog;\r\n  uint256 public releases;\r\n  mapping(uint256 => string[]) private hashes;\r\n  mapping(address => uint256[]) public collection;\r\n\r\n  // dev side\r\n  function newRelease(string calldata name, uint256 price) public {\r\n    require(msg.sender == dev);\r\n    catalog.push(Release(name, price, 0));\r\n    releases++;\r\n    // dev gets free copy\r\n    collection[msg.sender].push(catalog.length - 1);\r\n  }\r\n\r\n  function pushHash(uint256 catIndex, string calldata hash) public {\r\n    require(msg.sender == dev);\r\n    hashes[catIndex].push(hash);\r\n  }\r\n\r\n  function priceChange(uint256 index, uint256 price) public {\r\n    require(msg.sender == dev);\r\n    catalog[index].price = price;\r\n  }\r\n\r\n  function getHashesLength(uint256 catIndex) public view returns (uint256) {\r\n    return hashes[catIndex].length;\r\n  }\r\n\r\n  // user side\r\n  function buyRelease(uint256 catIndex, uint256 value) public payable {\r\n    Release storage r = catalog[catIndex];\r\n    require(value >= r.price * 1e12, \"can't pay less than min price\");\r\n\r\n    (bool sent, bytes memory data) = dev.call{value: msg.value}(abi.encodeWithSignature(\"register(string)\", \"MyName\"));\r\n    // require(data.length > 0, \"Data\");\r\n    require(sent, \"Failed to send Ether\");\r\n\r\n    collection[msg.sender].push(catIndex);\r\n    r.purchased++;\r\n  }\r\n\r\n  function getHash(uint256 colIndex, uint256 hashIndex)\r\n    public\r\n    view\r\n    returns (string memory)\r\n  {\r\n    string[] memory h = hashes[collection[msg.sender][colIndex]];\r\n    return h[hashIndex];\r\n  }\r\n}\r\n",
  "sourcePath": "C:\\dofdev\\ETHEREUM\\backdev\\contracts\\Monolith.sol",
  "compiler": {
    "name": "solc",
    "version": "0.8.7+commit.e28d00a7.Emscripten.clang"
  },
  "schemaVersion": "3.4.3",
  "updatedAt": "2021-09-08T17:01:57.298Z",
  "devdoc": {
    "kind": "dev",
    "methods": {},
    "version": 1
  },
  "userdoc": {
    "kind": "user",
    "methods": {},
    "version": 1
  }
}